:100000000EC020C01FC01EC01DC01CC01BC01AC017
:1000100019C018C017C016C015C014C013C01124D1
:100020001FBECFE5D2E0DEBFCDBF10E0A0E6B0E05E
:10003000EAE9F0E002C005900D92A236B107D9F7C7
:100040000FD029C0DDCF80E88BBD80E58CBD8FEF60
:100050008DBD80B7806880BF80B7846080BF089501
:100060008FEF87BB88BB88E893E129E130E0F90195
:100070003197F1F70197D9F718BAE5DF84E68BBD20
:1000800024ED30E3C29AC9010197F1F7C298C90182
:0A0090000197F1F7F7CFF894FFCFC6
:02009A00040060
:00000001FF
